:1011C200022D04000237040202390403023104042E
:0411D20002330405DB
:0D11FA00007F037E707D5BDDFEDEFCDFFA12
:0112070022C4
:0D121600E4F59275910175DE0F75BC802224
:0E120800758F10D28AD2AAD288D2A8D2AF2275
:10109000AF2EAE2D12117C8F35AF38AE3712117CCA
:1010A000EF3395E0EF7F00FEC007C006AF3AAE39E0
:1010B00012117CEFFD3395E0FCD0E04CF52FD0E031
:0D10C0004DF530AF34AE3312117C8F362267
:1011D700E4F5B275B1C112123012121612120802DA
:0211E700109066
:100E1A00E4F508F5091211D7E52C146010146015D1
:100E2A00146048240370F1E4FBFDFF8039AB35AD53
:100E3A0035AF358031E535FB7A007513007514003E
:100E4A0075150B75160075170075180A7519007552
:100E5A001A00751B0C7D647C00AF30AE2F120BD2CA
:100E6A00AB0CAD0AAF0B1211E980AD1211FAE536DF
:100E7A00FB3395E0FA75130075140075150B75169A
:100E8A000075170075180A751900751A00751B0C7C
:100E9A007D647C00AF09AE08120BD2AB0CAD0AAF71
:100EAA000B1211E90509E50970020508C39468E502
:100EBA000894015003020E22E4F508F509020E22F5
:030013000210CD0B
:1010CD00C0E0C0D0E52C14600F146011146013241F
:1010DD0003700F752C01800D752C028008752C0383
:0A10ED008003752C00D0D0D0E03253
:03000300021006E2
:10100600C0E0C0F0C083C082C0D075D000C000C0B0
:1010160001C002C003C004C005C006C007E52C24F9
:10102600FE601614603924027045AF2EAE2D1211E3
:10103600ACAD35AF2EAE2D8033AF38AE371211AC16
:10104600E52FFF3395E0EFFDAF38AE37121194AFC1
:101056003AAE391211ACE530FDAF3AAE39800DAF7C
:1010660034AE331211ACAD36AF34AE33121194D068
:1010760007D006D005D004D003D002D001D000D0CE
:0A108600D0D082D083D0F0D0E03249
:03005300020ECAD0
:100ECA00C0E0C0D075D000C006C007E52C24FE6083
:100EDA001714605D24026003020F7130B7050535EF
:100EEA00020F711535020F7130B70A0530E53070FF
:100EFA000C052F8008E53015307002152FC3E52F39
:100F0A006480948050067E017F688004AE2FAF30E3
:100F1A008E2F8F30D3E5309468E52F64809481401A
:100F2A00067E007F008004AE2FAF308E2F8F308078
:100F3A003630B704053680021536AF36EF3395E002
:100F4A00C36480948050047F648002AF368F36EF8A
:100F5A003395E0FED3EF9464EE6480948040047F7E
:100F6A00008002AF368F36D007D006D0D0D0E0321C
:10111C00D2B5000000000000000000C2B5000000C5
:10112C0000000000000000000000000000000000B3
:01113C002290
:10113D00D2B500000000000000000000000000001B
:10114D000000000000C2B50000000000000000001B
:01115D00226F
:0A123000C2B57F0D7E75DEFEDFFC07
:01123A002291
:1010F700E4FEEEC39408748094805018A806EF08A5
:101107008002C333D8FC30E70512113D800312116A
:041117001C0E80DE4C
:01111B0022B1
:0F115E0012116DAF0D12116DAF0D12116DAF0D9E
:0F116D00AC031210F7AF051210F7AF040210F722
:1011E9008F0DAA03A90512115EAF0D12115E02122D
:0111F90030C5
:080BD2008E0D8F0E8C0F8D10AB
:100BDA00AE02AF03AD07AC06E4120AA37B337A3345
:100BEA00792378401208F88F2B8E2A8D298C28C3F6
:100BFA0074649510FDE4950FFCE4120AA3AB2BAACA
:100C0A002AA929A8281208F8E4FBFA79C878421216
:100C1A000A018F278E268D258C24AE0DAF0E7C00FF
:100C2A007D3C120B6F8E1C8F1DAE0DAF0E7C007DAE
:100C3A003C120B6F8C1E8D1FAB27AA26A925A82450
:100C4A00AF2BAE2AAD29AC28120803C004C005C0D8
:100C5A0006C007AC1EAD1FEC120AA3D003D002D007
:100C6A0001D0001208F8E4FBFA79707842120A01FE
:100C7A008F238E228D218C20E51C6003020DCFE587
:100C8A001D146043147003020D11147003020D51F8
:100C9A00147003020D9024046003020DCFAF2BAE33
:100CAA002AAD29AC28120ADCAB16AA17A918EF122A
:100CBA000B5DAF23AE22AD21AC20AB27AA26A92516
:100CCA00A8241208078028AB23AA22A921A820AFAA
:100CDA002BAE2AAD29AC28120803120ADCAB16AADD
:100CEA0017A918EF120B5DAF2BAE2AAD29AC28124B
:100CFA000ADCAB13AA14A915EF120B5DAF27AE26B7
:100D0A00AD25AC24020E0CAF27AE26AD25AC2412BD
:100D1A000ADCAB16AA17A918EF120B5DAF2BAE2A85
:100D2A00AD29AC28120ADCAB13AA14A915EF120BD1
:100D3A005DAF23AE22AD21AC20AB27AA26A925A8F8
:100D4A0024120807020E0CAF27AE26AD25AC2412DA
:100D5A000ADCAB16AA17A918EF120B5DAB23AA225D
:100D6A00A921A820AF2BAE2AAD29AC28120803125C
:100D7A000ADCAB13AA14A915EF120B5DAF2BAE2A2E
:100D8A00AD29AC28807CAF23AE22AD21AC20AB27A5
:100D9A00AA26A925A824120807120ADCAB16AA1744
:100DAA00A918EF120B5DAF27AE26AD25AC24120AA7
:100DBA00DCAB13AA14A915EF120B5DAF2BAE2AAD4B
:100DCA0029AC28803DAF2BAE2AAD29AC28120ADC0B
:100DDA00AB16AA17A918EF120B5DAF27AE26AD25E1
:100DEA00AC24120ADCAB13AA14A915EF120B5DABE3
:100DFA0023AA22A921A820AF2BAE2AAD29AC2812FA
:0F0E0A000803120ADCAB19AA1AA91BEF120B5D21
:010E190022B6
:0D122300E4F5C7F5C5F5C675C380F5C42216
:10117C0075C78175C5018FC4EEFF8FC375C65A75CF
:08118C00C6A500AFC202122348
:1011940075C78175C5028FC4EEFF8FC38DC275C636
:0811A4005A75C6A500021223D2
:1011AC0075C78175C5038FC4EEFF8FC375C65A759D
:0611BC00C6A5000212238B
:10080000020B48E86480F8E933E83360110460F0D3
:10081000ED33EC337009E8FCE9FDEAFEEBFF22045E
:1008200060DED3EB9FEA9EE99DE8C2E78CF0C2F759
:1008300095F0400CE8CCF8E9CDF9EACEFAEBCFFB25
:10084000120B1385D0F05804700320D5B3E8047060
:10085000075002B2D5020B5292D5EC0460F7E4CCFB
:10086000C0E0C398F8603B94186008400DD0E0FBEE
:10087000020B2AE4FBFAC9FC8028E830E406E4C94C
:10088000FBE4CAFCE830E305E4C9CACBFCE8540742
:100890006010F8C3E913F9EA13FAEB13FBEC13FC4D
:1008A000D8F130F52FC3E49CFCEF9BFFEE9AFEEDF0
:1008B00099FDD0E0FBEF4E4D4C701222DB03020B92
:1008C0004FEC2CFCEF33FFEE33FEED33FDED30E764
:1008D000EB020B2AEF2BFFEE3AFEED39FDD0E0FBE9
:1008E00050130BBB0003020B52ED13FDEE13FEEF92
:0808F00013FFEC13FC020B2ABC
:1008F800EC4D6011E8497017ED33EC3304600DE4FA
:10090800FCFFFEFD22E933E8330470F8020B4812BD
:100918000B1358046009E4CC2481500628500902BE
:100928000B52284003020B4FC0E0EB4A7044B980D9
:1009380006D0E0FB020B3EEF4E701CBD8008EBFFBB
:10094800EAFEE9FD80EBE98DF0A4FEE5F00209E19D
:10095800E9CDF9EAFEEBFFEF89F0A4FCE5F0CE89DA
:10096800F0A42EFFE435F0CD89F0A42DFEE435F097
:100978008067EF4E7005BD80D780C3EF8BF0A4ACC5
:10098800F0EE8BF0A42CFCE435F0F8EF8AF0A42C00
:10099800E5F038FCE433CB8DF0A42CFCE5F03BF813
:1009A800EE8AF0A42CFCE5F038F8E433CF89F0A403
:1009B8002CFCE5F038CF3400CE89F0A42FFFE5F009
:1009C8003EFEE433C98DF0A42EFEE5F039CD8AF061
:1009D800A42FFFE5F03EFEE43DFD33D0E0FB5007D9
:1009E8000BBB000F020B52EC2CFCEF33FFEE33FE77
:0609F800ED33FD020B2AA5
:1009FE00020B52EC5D046005E859047003020B48CB
:100A0E00120B13580460F6EC4860F2EC7004FDFE15
:100A1E00FF22C860DB2481C85009C39860025006CB
:100A2E00020B4F9850CAF582E9294B4A7005AB82EA
:100A3E00020B3E75F0007C1A7880C3EF9BEE9AEDA8
:100A4E0099400DC3EF9BFFEE9AFEED99FDE842F043
:100A5E00DC23ACF0D0E0FFD0E0FED0E0FDAB822096
:100A6E00E7101BEB60BAEC2CFCEF33FFEE33FEED20
:100A7E0033FD020B2AE803F830E705C0F075F000ED
:100A8E00EF2FFFEE33FEED33FD40B830E7C280AA04
:100A9E0075F020800E75F010800575F0087D007ED3
:100AAE00007F003392D530D503120BC4EC334010C7
:100ABE00EF33FFEE33FEED33FDEC33FCD5F0ED22DC
:0E0ACE00E5F0247EA2D513CC92E7CDCEFF2218
:100ADC00EDD2E7CD33EC3392D524814006E4FFFE12
:100AEC00FDFC22FCE4CFCECDCC24E0501174FF8071
:100AFC00EDC3CC13CCCD13CDCE13CECF13CF04700E
:070B0C00F030D5DE020BC43E
:100B1300E9D2E7C933E833F892D5EDD2E7CD33EC28
:070B230033FC5002B2D522A1
:100B2A00EC30E7100FBF000C0EBE00080DBD00042C
:100B3A000BEB6014A2D5EB13FCED92E7FD2274FFD8
:100B4A00FCFDFEFF22E480F8A2D574FF13FC7D8031
:030B5A00E480EF45
:03000000020F7A72
:0C0F7A00787FE4F6D8FD75813A020FC1C3
:100B5D00BB010689828A83F0225002F722BBFE0177
:020B6D00F32271
:100B6F00BC000BBE0029EF8DF084FFADF022E4CC6A
:100B7F00F875F008EF2FFFEE33FEEC33FCEE9DEC33
:100B8F00984005FCEE9DFE0FD5F0E9E4CEFD22ED79
:100B9F00F8F5F0EE8420D21CFEADF075F008EF2FC3
:100BAF00FFED33FD4007985006D5F0F222C398FDB4
:050BBF000FD5F0EA2251
:0E0BC400C3E49FFFE49EFEE49DFDE49CFC2242
:100F8600020E1AE493A3F8E493A34003F68001F259
:100F960008DFF48029E493A3F85407240CC8C3336C
:100FA600C4540F4420C8834004F456800146F6DF3B
:100FB600E4800B01020408102040809011C2E47EF8
:100FC600019360BCA3FF543F30E509541FFEE49330
:100FD600A360010ECF54C025E060A840B8E493A3F7
:100FE600FAE493A3F8E493A3C8C582C8CAC583CA22
:100FF600F0A3C8C582C8CAC583CADFE9DEE780BEDA
:0111D6000018
:00000001FF
